:020000040800F2
:10000000780B002079020008933500084D2E000877
:100010009135000819050008CF40000800000000D5
:100020000000000000000000000000009B350008F8
:100030001B05000800000000993500089D350008E8
:10004000930200089302000893020008930200083C
:10005000930200089302000893020008930200082C
:10006000930200089302000893020008930200081C
:10007000930200089302000893020008930200080C
:1000800093020008930200089302000893020008FC
:1000900093020008930200089302000893020008EC
:1000A0009302000893020008930200081936000822
:1000B0006D370008930200089302000893020008BD
:1000C00093020008930200089302000893020008BC
:1000D00093020008930200089302000893020008AC
:1000E000930200089302000893020008930200089C
:1000F000930200089302000893020008930200088C
:10010000930200089302000893020008930200087B
:100110009302000893020008053900081D39000801
:10012000930200089302000893020008930200085B
:10013000930200089302000893020008930200084B
:1001400093020008930200089302000800000000D8
:10015000000000000000000000000000000000009F
:1001600000000000000000000000000093020008F2
:10017000930200089302000893020008930200080B
:1001800093020008930200089302000893020008FB
:100190009302000800000000930200089302000888
:1001A00093020008930200089302000893020008DB
:1001B00093020008930200089302000893020008CB
:1001C00093020008930200089302000893020008BB
:1001D000930200089302000800F002F800F03CF8D7
:1001E0000AA090E8000C82448344AAF10107DA4592
:1001F00001D100F031F8AFF2090EBAE80F0013F0A8
:10020000010F18BFFB1A43F001031847F043000029
:1002100010440000103A24BF78C878C1FAD85207B9
:1002200024BF30C830C144BF04680C607047000070
:100230000023002400250026103A28BF78C1FBD8EF
:10024000520728BF30C148BF0B6070471FB504F08C
:10025000B0F91FBD10B510BD00F08AF81146FFF7C8
:10026000F5FF03F045FF00F0A8F803B4FFF7F2FF35
:1002700003BC00F0AFF80000094880470948004778
:10028000FEE7FEE7FEE7FEE7FEE7FEE7FEE7FEE746
:10029000FEE7FEE704480549054A064B70470000A3
:1002A00009360008D901000878050020780B0020E5
:1002B000780700207807002010B5203AC0F00B80A6
:1002C000B1E81850203AA0E81850B1E81850A0E85A
:1002D0001850BFF4F5AF5FEA027C24BFB1E81850B4
:1002E000A0E8185044BF18C918C0BDE810405FEA24
:1002F000827C24BF51F8043B40F8043B08BF7047A0
:10030000D20728BF31F8023B48BF11F8012B28BFA4
:1003100020F8023B48BF00F8012B70474FF0000265
:1003200000B5134694469646203922BFA0E80C50EB
:10033000A0E80C50B1F12001BFF4F7AF090728BFC6
:10034000A0E80C5048BF0CC05DF804EB890028BF42
:1003500040F8042B08BF704748BF20F8022B11F06B
:10036000804F18BF00F8012B7047704770477047E7
:10037000754600F02BF8AE4605006946534620F05E
:100380000700854618B020B5FFF784FFBDE8204080
:100390004FF000064FF000074FF000084FF0000B41
:1003A00021F00701AC46ACE8C009ACE8C009ACE8F4
:1003B000C009ACE8C0098D46704710B50446AFF3DC
:1003C00000802046BDE81040FFF74FBF004870474F
:1003D0001805002001491820ABBEFEE726000200E8
:1003E0007047000070B50446006881688268C1F3F8
:1003F000400112F0010F28D039BB816801F00D01D6
:10040000012914D18168124A1140891C8160216838
:100410000320086001F06EFA054612E001F06AFA66
:10042000401B02280DD920688068C00709D0E06D04
:1004300040F01000E065206E40F0010020660120D1
:1004400070BD20688068C007E8D1002070BD000042
:10045000C0FFFF7FF8B50446002000902068816847
:1004600011F0010F4AD18168254A114237D18168C4
:10047000D5432940491C81602068B0F1A04F02D0CB
:100480002049884201D1204800E02048806800F0DF
:10049000E07000020DD51E481E490068B0FBF1F067
:1004A000401C00EB4000800000E0401E009000284F
:1004B000FBD101F01FFA06461BE0816811F0010F25
:1004C00003D181682940491C816001F013FA801B27
:1004D00002280ED920680068C043C00709D0E06D2B
:1004E00040F01000E065206E40F001002066012021
:1004F000F8BD20680168C943C907DED10020F8BDF6
:100500003F00008000010050000300500007005031
:100510006C000020400D0300FEE7704772B6FEE756
:10052000F0B5D1E901650C692C430D68C6B145F001
:1005300080452C43D1E90665354391F820704E691A
:10054000406D46EA076635438E8903EBC30300EB33
:10055000C30045EA0645E0E8024500230B4D0FE0E5
:1005600044EA8544E6E7D418D65CE77846EA0766AD
:10057000A77864783F0447EA0424264340C01B1D43
:10058000CC682C5D9C42EED8F0BD0000D44500083C
:1005900000B587B018220C496846FFF78DFE0B485E
:1005A00040F2112101630021416381630821C1638D
:1005B0006946074800F04FFE08B172B6FEE70448EE
:1005C00001F058F807B000BDBC45000870000020DD
:1005D00084020020F8B500260446009690F85800E2
:1005E0000D4601280BD0012084F858002046FFF763
:1005F000F9FE0100E06D04D040F010002AE0022076
:10060000F8BD20F4885040F00200E0652068826860
:10061000134B1A4005F080431A4342F000428260B7
:10062000104A20680EE0009B5B1C0093934209D3A4
:10063000E06D20F0020040F01000E06584F85860A2
:100640000120F8BD8368DB0FEDD1E06D20F00200E2
:1006500040F00100E06584F858600846F8BD0000ED
:10066000C0FFFF3F02DE04002DE9F84F4FF0000904
:100670000446CDF800900D4694F85820DFF8EC833E
:1006800061694F464846012A0AD00126F84A84F893
:10069000586041B1296A012905D0A36EEBB129E068
:1006A0000220BDE8F88F6868092838D1A96A4FF49C
:1006B000785041B12B6801F07C0100EA53400843B7
:1006C000E96A084302E0296800EA51402368D96CCE
:1006D00011400143D964606621E0C4E91971A96A37
:1006E000286A31B101F07C01401E0843E96A0843E1
:1006F00000E0401E29682B79C1F3846103F01F03D9
:1007000099400143A06E401EA066636E43EA010358
:10071000636604D12168C86C10401843C86420681F
:1007200002F09FFB58B995F8250098B12068C16880
:1007300095F8262021F4401141EA4251C160206819
:1007400002F097FB8246206802F08BFB5AEA000019
:100750000DD0FCE095F8260095F82410400540EAFD
:1007600001512068C26822F440121143E6E7A86AEA
:1007700030B1E86A20B195F8250001285ED003E089
:1007800095F82500012804D02068C16821F0007187
:1007900003E02068C16841F00071C16095F8300045
:1007A000012852D02068016921F002010161AA6884
:1007B00029682068B2F1004F38D002F05EFB206853
:1007C000416921F00041416120686969C268C2F352
:1007D000C102520091402A69042A45D000EB8200F0
:1007E0002B68026EDFF88CC203F0F84302EA0C02B9
:1007F0000B431A4342F00041016620682A69A96947
:1008000000EB8200026E22F080720A430266297FAA
:1008100022682869012924D05FF0000102EB8000E2
:10082000026E22F000720A43026690E0002202F09B
:1008300024FB2068416941F00041C4E7E06D40F0CD
:100840002000E0654FF00109A8E7D5E90D01084354
:1008500021680A6922F4FF7242F002021043086123
:10086000A5E74FF00071D9E7002102F0F0FA40034C
:1008700020684FF0000172D002F0E9FA90FAA0F07F
:10088000B0FA80F1286842036ED090FAA0F0B0FA76
:1008900080F0814204D100221146206802F0FCFA67
:1008A0000121206802F0D3FA400320684FF00101D3
:1008B0005DD002F0CCFA90FAA0F0B0FA80F128688E
:1008C000420359D090FAA0F0B0FA80F0814204D1EE
:1008D00000220121206802F0DFFA0221206802F0E4
:1008E000B6FA400320684FF0020148D002F0AFFA98
:1008F00090FAA0F0B0FA80F12868420344D090FA50
:10090000A0F0B0FA80F0814204D1002202212068D8
:1009100002F0C2FA0321206802F099FA400320682D
:100920004FF0030133D002F092FA90FAA0F0B0FA3F
:1009300080F1286842032FD090FAA0F0B0FA80F03E
:10094000814204D100220321206802F0A5FA206828
:10095000816811F0010F22D0B5E000E004E002F060
:1009600076FAC0F384618DE7C0F3846091E702F00A
:100970006EFAC0F38461A2E7C0F38460A6E702F0D8
:1009800066FAC0F38461B7E7C0F38460BBE702F0A6
:100990005EFAC0F38461CCE7C0F38460D0E72A7BC1
:1009A000296850F8B03FC1F3120C23EA0C0302F09F
:1009B000180C314A22FA0CF20A4013430360E9682A
:1009C00041457DD1286841031BD090FAA0F1B1FACE
:1009D00081F1491C01F01F0109294FEA403131D84A
:1009E000002911D090FAA0F1B1FA81F101F10101D1
:1009F00001F01F0106FA01F609D100BFC0F38461BE
:100A000009E0C0F38461E4E7C0F38461EEE790FAA3
:100A1000A0F1B1FA81F101F1010101F01F0146EAF3
:100A2000816102D1C0F3846003E090FAA0F0B0FAD3
:100A300080F000F1010000F01F0000EB400041EAEF
:100A400000513AE000290ED090FAA0F1B1FA81F1FC
:100A500001F1010101F01F0106FA01F60ED100BFFC
:100A6000C0F384610EE0C0F38461F1E700007F40D1
:100A70000040100400F0FF03FFFF070090FAA0F110
:100A8000B1FA81F101F1010101F01F0146EA816132
:100A900002D1C0F3846003E090FAA0F0B0FA80F0D5
:100AA00000F1010000F01F003A4A00EB400002EBA9
:100AB000005041EA000141F00071AA68206800E09E
:100AC00001E002F0DAF934482B6803425ED0226874
:100AD0004FF0A04C3148324E324D624501D0AA420F
:100AE00001D1014600E031468968DFF8BC8001F0A1
:100AF000E071434503D0DFF8B480434520D15FEA7D
:100B000001281DD4624505D0294B9A423ED1AA4204
:100B100000D0304641F40001826822F0E0720A43BE
:100B20008260244824490068B0FBF1F0801C00EB8F
:100B30004000800000E0401E00900028FBD125E02E
:100B4000DFF8788043450FD15FEAC1180CD4AA4280
:100B500002D11B4B9A4219D0624502D0AA4200D062
:100B6000304641F080710CE0DFF8588043450DD1EC
:100B70004B020BD4AA4209D0624500D0304641F462
:100B80008001826822F0E0720A43826084F8587023
:100B9000484686E5000020FE000008800003005063
:100BA0000007005000010050000021C31000C09059
:100BB000000600506C000020400D0300000052C7EA
:100BC00000050050000084CB2DE9F0410446006888
:100BD0004FF0A0453E4FA84201D0B84201D13D4957
:100BE00000E03D49896801F01F0602F03AF908BBB0
:100BF0002168C868C96C00F0004011F4C07F00D1C2
:100C000090B194F85800012814D0012084F85800BD
:100C10002046FFF71FFC01004FF000020CD084F8C3
:100C200058200846BDE8F081E06D40F02000E06506
:100C30000120F7E70220F5E7E06DC00504D5206E3E
:100C400020F00800206600E02266E06D42F2010319
:100C5000984340F48050E0652068204BDFF880C066
:100C6000B84201D1AE4604E0984201D1E64600E028
:100C70008646864500D02EB9D4F85CE02EF4801E5E
:100C8000C4F85CE04FF0600EC0F800E084F8582033
:100C90002068B84204D0984201D1654600E005467C
:100CA000854209D046B1062E06D0072E04D0E06D4D
:100CB00040F48010E065B4E7C26812F0007FB0D164
:100CC0008268084B1A4042F008028260A9E70000DF
:100CD00000010050000300500007005000050050C4
:100CE00000040050C0FFFF7F2DE9F04F044690F84C
:100CF00058009BB00F464FF0000B012812D0012086
:100D000084F8580000261796189620684FF0A048DF
:100D1000DFF81C91DFF81CA1474D404506D128465D
:100D2000009508E002201BB0BDE8F08F48450AD1CD
:100D30005046CDF800A002F09CF80090206802F028
:100D400098F840B109E0E06D40F02000E06584F8DB
:100D500058600120E7E7009850B1E06D40F02000B6
:100D6000E0654FF0010B00BF84F858605846DAE7A1
:100D700020684146884201D0A84201D12F4800E0B6
:100D80002F48D7F800C02F4B40F61F72BCF1000F60
:100D90002DD0D0F808C094F838802CF4604C4CEA80
:100DA000483CD7F804804CEA080CC0F808C0D4F8D6
:100DB00000C08C4501D0AC4504D18968AB6801F016
:100DC000010109E0D9F80810DAF8085001F0010132
:100DD00005F001059B68294303F001031943C3D1C2
:100DE000BB68396819438368934319431DE08768DA
:100DF00027F46047876027688F4201D0AF4204D153
:100E00008968AB6801F0010109E0D9F80810DAF847
:100E1000085001F0010105F001059B68294303F02A
:100E200001031943A0D18168914381609CE70000D0
:100E30000004005000050050000100500003005065
:100E40000007005000060050F8B54FF00005040000
:100E50002E46009502D0E06D10B107E00120F8BDEC
:100E6000204600F009F9266684F8586020688168F9
:100E7000C1F3407119B18168734A114081602068E3
:100E80008168C1F3007189B98168704A114041F0ED
:100E9000805181606E486F490068B0FBF1F04000FE
:100EA000801C00E0401E00900028FBD12068816873
:100EB000C1F3007141B9E16D41F01001E165216EAE
:100EC00041F001012166012501F0CFFFE16DC90666
:100ED00000D430B1E06D40F01000E06501252846F7
:100EE000F8BDE06D20F4807040F00200E0652068FD
:100EF000816811F0010F27D14FF0A043564A984264
:100F000001D0904204D19968966801F001010AE08D
:100F100052498968524E01F00101B66806F0010697
:100F20003143504EB66806F0010631430CD1984269
:100F300001D0904201D14C4800E04C486168826881
:100F400022F47C120A438260E168E06B627F08430E
:100F5000A16841EA4231084394F8241040EA014074
:100F6000012904D1218D424A02EB41410843E16A43
:100F700029B101F47871226B014342EA0100226831
:100F8000D1683C4B19400143D16020680169626B14
:100F900021F0406111430161206801F05EFF70BBE8
:100FA000207F94F838102268800340EA4100D1681D
:100FB00044F2020399430143D1602069002820686C
:100FC00001690AD041F480310161206850F8C01FE6
:100FD00022696FF30D01114307E021F480310161B3
:100FE000206850F8C01F6FF30D01016094F84000B5
:100FF00001280CD02068016921F0010101616069BC
:1010000001282068016B21F00F0111D013E0D4E911
:1010100011010843D4E913121143084321680A69F6
:1010200040F2FC739A43104340F001000861E6E788
:10103000226A521E11430163E06D20F0020040F06D
:101040000100E0654BE70000C0FFFF5FC0FFFF7FCE
:101050006C000020400D030000010050000400500F
:10106000000500500006005000030050000700502B
:101070000000FEFF0740F0FF2DE9F0439BB004465F
:10108000142115A8FFF74AF954216846FFF746F9DD
:101090004FF40041206800268A034D4D03274D4C34
:1010A0004FF001084FF09049B0F1A04F10D04A4BDB
:1010B00098424AD168461192009100F025FE08B18D
:1010C000FFF72CFA2868401C2860012822D029E06C
:1010D00068461192009100F017FE08B1FFF71EFA62
:1010E0002868401C2860012807D1E06C40F40050BB
:1010F000E064E06C00F400501A90E06C40F00100F5
:10110000E064E06CCDF8548000F001001A9015A95D
:10111000484640E0E06C40F40050E064E06C00F4CD
:1011200000501A90E06C40F00100E064E06C17960B
:1011300000F001001A901020CDE9150715A94846C6
:1011400000F0AEFA1BB0BDE8F083244B9901CA034E
:10115000984223D168461292009100F0D5FD08B163
:10116000FFF7DCF96868401C6860012807D1E06C73
:1011700040F48040E064E06C00F480401A90E06C41
:1011800040F00200E064E06CCDF8548000F0020012
:101190001A90134815A9CDE91676D1E7114B98425C
:1011A000D0D168461292009100F0AEFD08B1FFF771
:1011B000B5F96868401C68600128C3D1E06C40F450
:1011C0008040E064E06C00F480401A90BAE70000D0
:1011D00040000020001002400001005000040050B8
:1011E000000400480005005070B5044600F082FB82
:1011F0000546601C02D004484068044400F07AFBB5
:10120000401BA042FAD370BD6000002070B50446B8
:1012100090F85C00022803D0206E40F0080007E040
:101220002068D0F8C4309B0205D5206E40F40070D1
:101230002066012070BDD0F8C400C0F301452B46E4
:101240002046FFF76DF921680120A840C1F8CC00C5
:10125000A065002070BD10B590F85C20012A07D071
:10126000022A05D0016E41F002010166012010BD85
:101270000A687AB10B7B0A690C7A42EA43734A69BD
:10128000406C496842EA847200EBC100C0E9003258
:10129000002010BD0B7A4A690C8A42EA83720B7BEC
:1012A000006CDB06496843EA04431A4340F82120F6
:1012B000EEE700000068402905D0D0F8980000BF94
:1012C00000F00F007047D0F89000F9E7F0B590F803
:1012D0005C400025022C03D0016E41F0080160E063
:1012E0000468402946D0D4F89860360756D0D4F820
:1012F0009860F60104D5D4F88060F60500D5012584
:10130000D4F89840C4F301246619C46C06EBC605F2
:1013100004EBC504256815F080455560256843D069
:1013200025F06045156025682C4F05F00055956047
:1013300020CC05F00045156134F8045BADB2D561F1
:1013400054F8045CC5F30345D56054F8045C05F417
:101350008015556154F8045C05F40015956154F846
:10136000045CC5F30665156254F8045CED0F556224
:10137000002522E0D4F8906036070FD0D4F89060B2
:10138000F60104D5D4F88060B60500D50125D4F85F
:101390009040C4F301246619846CB7E7016E41F4F0
:1013A000807101660120F0BDC5F38A45BAE700BF30
:1013B00014F805C003F805C06D1CD2F80CC017F86E
:1013C0000CC0AC45F4D80068402903D0C0F89C603C
:1013D0000020F0BDC0F89460FAE70000D445000892
:1013E0002DE9F041040006D0DFF8F48194F85C00A8
:1013F000002518B107E00120BDE8F08184F85D50B8
:10140000204600F0F9F82068816921F0100181611F
:1014100000F070FA0646032705E000BF00F06AFA04
:10142000801B0A2811D8206880690007F6D420683C
:10143000816941F00101816100F05CFA06460BE030
:1014400000F058FA801B0A2806D9206E40F00100EF
:10145000206684F85C70CEE720688069C007EFD012
:101460002068816941F0020181612168414502D112
:101470005C4960680860207C01282068816937D059
:1014800041F040018161607C01282068816932D08F
:1014900021F480418161A07C0128206881692DD0E0
:1014A00041F48051816120688169A26821F4407112
:1014B000114381612068816921F0A4018161206864
:1014C000016921F010010161E068012819D010B311
:1014D00002281BD02068816941F080018161206869
:1014E000016941F010010161E06803280ED012E0AB
:1014F00021F04001C6E741F48041CBE721F480515F
:10150000D0E72068816941F0040103E02068816927
:1015100041F020018161207EE26940066FF0FF0109
:1015200001EB0222A0F100701043226AA38A521E2E
:1015300010430A0202EB034318432368D861A068F2
:10154000B0F5407F10D1D4E90A0301EB0321401E1E
:101550000843216B131303EB01110843A18C02EB29
:10156000014108432168C860206850F8C01FE26B41
:10157000114301601D4A21681B48914200D11C485B
:101580001C4A914201D100F5D460206451F8802FAB
:10159000A38E22F4F81242EA03420A6000F17001BD
:1015A0006164216851F8802F94F8383022F070621D
:1015B00042EA03620A6000F1B001A164D831E1643B
:1015C000D831216518316165D83100E020C08842EA
:1015D000FCD3A5652566012084F85C0000200BE79C
:1015E000006400400065004000A400400068004026
:1015F00050A70040006C004010B59CB00446142178
:1016000015A8FEF78BFE54216846FEF787FE1749A2
:101610002068884228D18014009040030E906846CC
:1016200000F072FB08B1FEF779FF1148816D41F0BF
:1016300000718165816D01F000711A91C16C41F0FA
:101640000101C164C06C15A900F001001A904FF4AB
:10165000C050159002201690002017901890092075
:101660001990C00600F01CF81CB010BD00640040CA
:101670000010024090F85C10012905D0016E41F085
:101680000401016601207047022180F85C100168A6
:101690008A6922F001028A610021016608467047CA
:1016A0002DE9F04FDFF82092002301260324A9F151
:1016B000040B85B00F2709F1040AABF1040EFAE020
:1016C00006FA03F52A407CD091F804C00CF0030C14
:1016D000BCF1010F02D0BCF1020F26D1D0F808C036
:1016E000CDF800C04FEA430C04FA0CF8CDF810C056
:1016F000DDF800C02CEA080CCDF800C0D1F80C8051
:10170000DDF810C008FA0CF8DDF800C048EA0C0853
:10171000C0F80880D0F804C02CEA050C0D79C5F398
:1017200000159D4045EA0C0545600D79ED43AD0778
:101730000ED0C5684FEA430804FA08FC25EA0C05F8
:10174000D1F808C00CFA08FC4CEA050CC0F80CC033
:101750000D7905F00305022D16D1DD0800EB850C8F
:10176000CDF808C0DCF820805D074FEAD56C07FA99
:101770000CF528EA05080D6905FA0CF5DDF808C036
:1017800045EA0805CCF8205005684FEA430CCDF82F
:1017900008C004FA0CFC25EA0C0591F804C00CF012
:1017A0000308DDF808C008FA0CF848EA0508C0F894
:1017B00000804D6815F4403F7CD0444DD5F860C0A2
:1017C00000E077E04CF0010CC5F860C02D6E23F00E
:1017D000030C05F0010500953D4D65440295AD688B
:1017E0004FEA837C4FEA1C7807FA08FC25EA0C05CF
:1017F000B0F1904F06D0DFF8DCC0604505D14FF066
:10180000010C20E04FF0000C1DE0DFF8CCC060457B
:1018100002D14FF0020C16E0DFF8C0C0604502D1E3
:101820004FF0030C0FE0DFF8B8C0604502D14FF075
:10183000040C08E0DFF8ACC0604502D14FF0050CA5
:1018400001E04FF0060C0CFA08FC4CEA050C029D76
:10185000C5F808C0D9F80050CC46D1F804809543AB
:101860005FEAC82800D51543CCF80050DAF80050DC
:10187000D446D1F8048095435FEA882800D5154303
:10188000CCF80050DBF80050DC46D1F804809543DA
:101890005FEA883800D51543CCF80050DEF80050D8
:1018A000F446D1F8048095435FEAC83800D5154363
:1018B000CCF800505B1C0A6832FA03F57FF400AFE5
:1018C00005B0BDE8F08F00000804014000100240A0
:1018D000000001400004004800080048000C0048D7
:1018E00000100048001400480AB18161704781620D
:1018F00070470000014880687047000060000020C9
:10190000024881684268114481607047600000208D
:1019100010B50024032000F095F80F2000F008F81F
:1019200008B1012401E000F047F8204610BD000096
:1019300030B505461B4887B0816D41F010018165C7
:10194000806D06A900F01000009001A800F054FC82
:1019500000F072FC1449154AB0FBF1F11448491E1D
:101960000260416040F2E7320021C0E9032181605A
:1019700000F06AFF040012D10D4801F007F80400DE
:101980000DD1362000F030F8102D07D20022294664
:10199000362000F037F80748056000E0012407B062
:1019A000204630BD0010024040420F0000100040B1
:1019B000CC040020600000200A4882B0016E41F093
:1019C00001010166016E01F001010091816D41F09C
:1019D00080518165806D00F08050009002B000F071
:1019E0008BB9000000100240002809DB00F01F0244
:1019F000012191404009800000F1E020C0F8001171
:101A000070470000F0B40E4B1B680C46C3F3022372
:101A1000C3F10705042D00D90425191D072901D29A
:101A2000002300E0DB1E012606FA05F1491E2140D5
:101A300099409E40761E16403143F0BC02F048BBF0
:101A40000CED00E0064900F0070208684FF6FF03BE
:101A5000184040EA0220034A104308607047000023
:101A60000CED00E00000FA05F8B504004FF00005A9
:101A700014D094F83A00052810D094F83A000228BF
:101A80000CD03448016E41F001010166006E00F097
:101A90000100009094F83A0010B104E00120F8BD74
:101AA000002084F83900204600F058F8A0682A4A3F
:101AB0004FF48071402836D0602834D02068036805
:101AC000E66A23F0100333430360D4E901031843AB
:101AD000D4E9033633431843237D012B00D0002182
:101AE0000843616A0843A16A0843218E40EAC14065
:101AF00094F8341040EA01612068036813401943E8
:101B0000016020688169002909DBD4E906121143CC
:101B1000226A836923F03F031A431143816194F8D9
:101B20003A0090B114E020680368E66A23F01003DD
:101B300033430360D4E901031843267D2369012E52
:101B400000D000210B431843CBE7012084F83A0072
:101B50002846F8BD00100240113E00E070B586B086
:101B6000044614216846FEF7D9FB264D226800235F
:101B7000254903244FF09040AA4209D1CA6C42F093
:101B80000102CA64C96C01F001010591082120E03D
:101B90001C4E1E4D361DB2420ED1C86C40F00200E4
:101BA000C864C86C00F0020005904FF4804022E049
:101BB000FFF776FD06B070BD124E0836B2420DD169
:101BC000CA6C42F00102CA64C96C01F001010591BE
:101BD0000221CDE9001402936946E9E7094814306F
:101BE0008242E7D1C86C40F00200C864C86C00F0C3
:101BF000020005909014CDE900046946029328463E
:101C0000D6E7000000030140001002400004004835
:101C1000002138B190F83A20052A03D090F83A20F4
:101C2000012A02D00121084670470268136843F078
:101C300001031360042280F83A20F4E72B492C4B6F
:101C40000A6832214A432B4940B1B0F5007F086849
:101C500029D020F4C06040F480602CE00868C0F314
:101C60004120022804D051F8800F20F4807022E037
:101C7000D1F8800020F48070C1F88000086820F45A
:101C8000C06040F400700860B2FBF3F0401C00E05C
:101C9000401E4A69520501D50028F9D1486940051E
:101CA0000AD503207047C0F34120022806D051F81E
:101CB000800F40F48070086000207047D1F88000E9
:101CC00040F48070C1F88000086820F4C06040F4DF
:101CD00000700860B2FBF3F0401C00E0401E4A694F
:101CE0005205DBD50028F9D1D8E700006C000020B0
:101CF00040420F00007000400248816841F480417A
:101D000081607047007000402DE9F8430446006888
:101D10000026BB4D00035ED5A86D0027C00008D487
:101D2000A86D40F08050A865A86D012700F0805094
:101D30000090DFF8D092D9F8001041F48071C9F812
:101D40000010FFF7D7FD804606E000BFFFF7D2FD89
:101D5000A0EB080002282BD8D9F80000C005F5D563
:101D6000D5F8900010F4407014D0216D814211D04C
:101D7000D5F89000D5F8901020F4407041F48031EF
:101D8000C5F89010D5F8901021F48031C5F8901066
:101D9000C5F89000C00711D0FFF7ACFD804641F2B6
:101DA000883907E0FFF7A6FDA0EB0801494501D9F6
:101DB00003260BE0D5F890008007F3D5D5F8900006
:101DC000216D20F440700843C5F890001FB1A86D44
:101DD00020F08050A8652078C00707D0D5F888008B
:101DE000616820F003000843C5F888002078800768
:101DF00007D5D5F88800A16820F00C000843C5F885
:101E000088002078400707D5D5F88800E16820F0E1
:101E100030000843C5F888002078000707D5D5F8BA
:101E20008800216920F0C0000843C5F888002078A8
:101E3000C00607D5D5F88800616920F440700843D2
:101E4000C5F888002078800607D5D5F88800A169F4
:101E500020F440600843C5F888002078400607D584
:101E6000D5F88800E16920F440500843C5F888009F
:101E70002078000607D5D5F88800216A20F4404074
:101E80000843C5F888002088C00507D5D5F8880024
:101E9000616A20F440300843C5F888002068800358
:101EA00007D5D5F89C00A16A20F003000843C5F8C7
:101EB0009C002088800507D5D5F88800E16A20F4C9
:101EC00040200843C5F88800208840050FD5D5F884
:101ED0008800216B20F440100843C5F88800206B6F
:101EE000B0F5801F03D1E86840F48010E8602088D6
:101EF00000050FD5D5F88800616B20F44000084339
:101F0000C5F88800606BB0F5800F03D1E86840F435
:101F10008010E8602088C0040FD5D5F88800A16B38
:101F200020F040700843C5F88800A06BB0F1807FB6
:101F300003D1E86840F48010E86020884FF0006129
:101F400080040ED5D5F88800E26B20F04060104385
:101F5000C5F88800E06B884203D1E86840F480103F
:101F6000E860208840040ED5D5F88800226C20F067
:101F700040601043C5F88800206C884203D1E868AF
:101F800040F48010E860208800040FD5D5F8880060
:101F9000616C20F040500843C5F88800606CB0F1D7
:101FA000805F03D1E86840F48030E8602068C003B7
:101FB0000FD5D5F88800A16C20F040400843C5F843
:101FC0008800A06CB0F1804F03D1E86840F4803005
:101FD000E860206840030FD5D5F89C00E16C20F440
:101FE00040100843C5F89C00E06CB0F5001F03D119
:101FF000E86840F48010E8603046BDE8F8830000EF
:102000000010024000700040704700002DE9F047CA
:102010000E4605004FF0000725D0DFF8AC81D8F858
:10202000000000F00F00B0420CD2D8F8001021F0F0
:102030000F013143C8F80010D8F8000000F00F007D
:10204000B04210D12968614CC80741F2883A5AD091
:102050006868DFF87C91032808D0022820682DD01A
:10206000400500282CDB0120BDE8F08720688001B6
:10207000F9D5E06800F00302E068C0F30310401CEB
:10208000032A19D0534A00BFB2FBF0F0E268C2F352
:1020900006225043E268C2F34162521C5200B0FB78
:1020A000F2F0484517D9A06810F0F00F0CD088075F
:1020B00011D5A86840B10EE0474AE5E78003D0E7B4
:1020C00000F0CCF8484506D9A06820F0F00040F0B8
:1020D0008000A0608027A068696820F003000843A2
:1020E000A060FFF707FC814606E000BFFFF702FC97
:1020F000A0EB090151453AD8A068696800F00C00CE
:10210000B0EB810FF2D12868810714D5400703D5C1
:10211000A06840F4E060A0602878000705D5A068BA
:1021200020F4605040F4E060A060A068A96820F04E
:10213000F000084304E0802F03D1A06820F0F000F5
:10214000A060D8F80010404601F00F01B14216D946
:10215000016821F00F0131430160FFF7CBFB074617
:1021600007E000BFFFF7C6FBC11B514501D90320A3
:102170007AE7D8F8000000F00F00B042F2D12878DA
:10218000400705D5A068E96820F4E0600843A06036
:102190002878000706D5A068296920F4605040EA35
:1021A000C100A06000F05AF8A1680C4AC1F3031105
:1021B000515C01F01F01C8400949086009480068E6
:1021C000BDE8F047FFF7B4BB00200240001002401A
:1021D00000B4C4040024F40000366E01E445000895
:1021E0006C000020600000200248016841F40021DA
:1021F00001607047001002400F2202600C4A936891
:1022000003F003034360936803F0F0038360936873
:1022100003F4E063C36092684FF4E06303EAD20220
:1022200002610448006800F00F0008607047000079
:1022300000100240002002400548064900688968F5
:10224000054AC1F30221515C01F01F01C8407047EB
:102250006C00002000100240F4450008184910B539
:102260008868C0F381021748012A0BD08A68164B90
:10227000C2F38102022A06D08A68C2F38102032ACD
:1022800003D0002010BD184610BDCA6802F0030438
:10229000CA68C2F30312521C032C02D0B0FBF2F046
:1022A00001E0B3FBF2F0CA68C968C2F306225043EA
:1022B000C1F34161491C4900B0FBF1F010BD0000C1
:1022C000001002400024F40000366E0110B5044CEA
:1022D000E069C00503D5FFF797FEA015206210BD89
:1022E000001002402DE9F84304007AD02078F84D20
:1022F000C00747D0A868E96800F00C0001F00301AE
:102300000C2802D0082817D001E0032914D06068F7
:10231000B0F5803F17D0B0F5A02F286817D020F473
:1023200080302860286820F4802028606068E0B150
:10233000FFF7E0FA064614E02868800322D56068BB
:102340000028D2D01EE0286840F48030EDE740F449
:1023500080202860F7E700BFFFF7CCFA801B6428D5
:1023600070D828688003F7D50CE0FFF7C3FA06465B
:1023700005E000BFFFF7BEFA801B6428F0D828688C
:102380008003F7D4207880074CD5A868E96800F06E
:102390000C0001F003010C2802D004280DD001E04C
:1023A00002290AD0E068002828682BD040F4807009
:1023B0002860FFF79FFA064619E02868400502D515
:1023C000E068002891D06868217C20F0FE4040EA57
:1023D00001606860BF480068FFF7AAFA002800D1D2
:1023E00020E072E1FFF786FA801B0228B8D828683F
:1023F0004005F7D56868217C20F0FE4040EA016086
:1024000068600FE020F480702860FFF773FA0646DA
:1024100005E000BFFFF76EFA801B0228A0D82868ED
:102420004005F7D42078000729D560690028D5F841
:10243000940013D040F00100C5F89400FFF75AFA59
:10244000064606E090E000BFFFF754FA801B022822
:1024500086D8D5F894008007F6D510E020F001006A
:10246000C5F89400FFF746FA064604E0FFF742FA83
:10247000801B022878D8D5F894008007F6D42078FD
:10248000400761D5A86D0026C00008D4A86D40F0B3
:102490008050A865A86D012600F0805000908E48FD
:1024A0000168C90511D40168804641F4807101605A
:1024B000FFF720FA074604E0FFF71CFAC01B0228CA
:1024C00052D8D8F80000C005F6D5A068012815D06C
:1024D0000528D5F8900016D020F00100C5F890002E
:1024E000D5F8900020F00400C5F89000A06841F2F3
:1024F0008838B8B1FFF7FEF907460EE0D5F890002E
:1025000040F00100F0E740F00400C5F89000F5E766
:10251000FFF7F0F9C11B414526D8D5F89000800798
:10252000F6D50CE0FFF7E6F9074604E0FFF7E2F91D
:10253000C11B414518D8D5F890008007F6D41EB1CC
:10254000A86D20F08050A8652078800629D5A06964
:102550000028D5F8980013D040F00100C5F8980085
:10256000FFF7C8F9064606E075E000BFFFF7C2F9BD
:10257000801B02286FD8D5F898008007F6D510E0A8
:1025800020F00100C5F89800FFF7B4F9064604E012
:10259000FFF7B0F9801B02285DD8D5F898008007B6
:1025A000F6D4E069F0B3A968C1F3810103295DD0D5
:1025B0000228286820F08070286003D0FFF79AF97D
:1025C00004464BE0FFF796F9064604E0FFF792F960
:1025D000801B02283FD828688001F7D4F4E908015D
:1025E0006FF00F0202EB01110843218A52044908DF
:1025F00002EB4151A26841EA02210843217D4FF0DC
:102600007E42490802EB41610843217B40EAC160F8
:10261000E968324A11400843E860286840F0807059
:10262000286000E05EE0E86840F08070E860FFF756
:1026300061F9044605E000BFFFF75CF9001B0228C2
:1026400009D828688001F7D54CE000BFFFF752F9A0
:10265000001B022802D90320BDE8F8832868800106
:10266000F4D4E8681E490840E8603BE00128F3D054
:10267000E868226A00F00301914226D1616A00F005
:10268000F0020901103991421FD1A26A00F4FE4103
:10269000B1EB022F19D194F82C2000F07841B1EB66
:1026A000C26F12D1218E00F4C00249084905A1F57C
:1026B0000011914209D194F8341000F0C06049082B
:1026C0004906A1F1007181420CD00120C4E700004D
:1026D0000010024060000020007000400C809F014C
:1026E000FCFFEEFE0020B7E730B590F83C20012A51
:1026F00045D0012280F83C20CA688B6822F44072E1
:102700001A434B6822F480621A430B6822F4006279
:102710001A430B6922F480521A434B6922F4005287
:102720001A430B6B22F480421A430B8B22F4702263
:1027300042EA0342CB6922F080521A43114D0368EA
:102740000024AB4205D0104DAB4202D00F4DAB423E
:1027500010D10D8D22F4700242EA05520D6A22F06A
:1027600080722A434D6A22F000722A43C96A22F01D
:1027700000520A435A6480F83C40002030BD0220D9
:1027800030BD0000002C01400034014000500140E9
:10279000F0B590F83C20012A43D0012580F83C5048
:1027A000022280F83D2003685A689C681E4E1F4F25
:1027B000DFF87CC0B34203D0BB4201D0634504D1F3
:1027C00022F4700E4A6842EA0E02DFF868E002EA7C
:1027D0000E02D1F800E04EEA020EC3F804E00268EF
:1027E000B24212D0B2F1804F0FD0134B9A420CD0AC
:1027F000124B9A4209D0124B9A4206D0BA4204D0E8
:10280000104B9A4201D0624504D1896824F08003BC
:102810001943916080F83D50002180F83C10084633
:10282000F0BD0220F0BD0000002C0140003401404A
:10283000005001408FFFFFFD0004004000080040F1
:10284000000C00400040014010B5040003D094F893
:102850003D0010B107E0012010BD002084F83C00CD
:10286000204600F023F8022084F83D00211D206856
:1028700001F0B6F9012084F8480084F83E0084F89D
:102880003F0084F8400084F8410084F8420084F856
:10289000430084F8440084F8450084F8460084F836
:1028A000470084F83D00002010BD000008B5016815
:1028B0001448B1F1804F14D0134A914220D1816D58
:1028C00041F020018165806D002200F02000009021
:1028D00011463720FFF796F83720BDE80840FFF78C
:1028E00083B8816D41F001018165806D002200F0A7
:1028F0000100009011461C20FFF784F81C20ECE733
:1029000008BD0000001002400014004090F83D1087
:10291000012901D001207047022180F83D10006894
:102920001249884214D0B0F1804F11D0104988422A
:102930000ED0104988420BD00F49884208D00F4969
:10294000884205D00E49884202D00E49884207D1FC
:1029500081680D4A1140062906D0B1F5803F03D0A9
:10296000016841F00101016000207047002C014026
:102970000004004000080040000C0040003401400A
:1029800000400140005001400700010090F83D1058
:10299000012901D001207047022180F83D10016813
:1029A000CA6842F00102CA6000681349884214D024
:1029B000B0F1804F11D0114988420ED010498842A1
:1029C0000BD01049884208D00F49884205D00F49E2
:1029D000884202D00E49884207D181680D4A1140D1
:1029E000062906D0B1F5803F03D0016841F001010E
:1029F0000160002070470000002C014000040040EE
:102A000000080040000C004000340140004001403C
:102A1000005001400700010070B5044690F83C00EA
:102A20000025012815D0012684F83C60022084F896
:102A30003D0022689068384B184020F47F40906039
:102A40000868B0F5805F2BD010DC10F00F0F03D0BA
:102A500025E04FF0020070BD4FEA2012082A1ED276
:102A6000DFE802F0565656564E3C44252B4BC21A10
:102A700098424DD00DDCB0F5005F23D0B0F5801F3B
:102A800046D0B0F1101F43D0A0F58011203906D1F7
:102A90003EE0102A3CD0202A3AD0402A38D00125E6
:102AA00084F83D60002084F83C00284670BDCB6867
:102AB000D1E90121206801F012F92068816841F014
:102AC000770109E0CB68D1E90121206801F007F91D
:102AD0002068816841F480418160E1E7CA68496803
:102AE000206801F0D1FA5021206806E0CA684968E0
:102AF000206801F0DAFA6021206801F0FBF8CFE7E6
:102B0000CA684968206801F0BFFA40212068F4E7EC
:102B1000226801461046F0E788FFCEFF3000100023
:102B200010B586B0044614216846FDF7F7FB0F493F
:102B30002068884217D10E48C16C41F00101C16480
:102B4000C06C694600F0010005904FF48070009061
:102B500002200190002002900390062004904FF084
:102B60009040FEF79DFD06B010BD0000002C014016
:102B70000010024070B5044690F83C0000260D4657
:102B800001280BD0012084F83C000C2A4AD007DC35
:102B900082B1042A20D0082A06D131E0022070BD7B
:102BA000102A53D0142A63D00126002084F83C0058
:102BB000304670BD206801F0A7F82068816941F0B7
:102BC000080181612068816921F004018161206828
:102BD00081692A69114311E0206801F0EBF820684F
:102BE000816941F4006181612068816921F480611B
:102BF0008161206881692A6941EA02218161D4E703
:102C0000206801F027F92068C16941F00801C1611D
:102C10002068C16921F00401C1612068C1692A6985
:102C2000114311E0206801F065F92068C16941F4A1
:102C30000061C1612068C16921F48061C1612068BF
:102C4000C1692A6941EA0221C161AEE7206801F049
:102C5000A1F92068016D41F0080101652068016D4E
:102C600021F0040101652068016D2A69114311E01A
:102C7000206801F0CBF92068016D41F40061016525
:102C80002068016D21F4806101652068016D2A6969
:102C900041EA0221016588E710B5040003D094F8E9
:102CA0003D0010B107E0012010BD002084F83C0079
:102CB000204600F023F8022084F83D00211D206802
:102CC00000F08EFF012084F8480084F83E0084F86C
:102CD0003F0084F8400084F8410084F8420084F802
:102CE000430084F8440084F8450084F8460084F8E2
:102CF000470084F83D00002010BD000008B50068C2
:102D00000B49884212D10B48016E41F40061016603
:102D1000006E002200F40060009011461B20FEF7B8
:102D200071FEBDE808401B20FEF75EBE08BD000036
:102D3000002C01400010024070B50446022269B127
:102D4000042912D0082917D00C291CD0102921D011
:102D500094F84300012824D0012070BD94F83E006F
:102D60000128F9D184F83E201DE094F83F000128A5
:102D7000F2D184F83F2016E094F840000128EBD10E
:102D800084F840200FE094F841000128E4D184F851
:102D9000412008E094F842000128DDD184F8422067
:102DA00001E084F843200122206800F08BFF1D49D8
:102DB00020681D4A1D4B1E4D88420BD0904209D001
:102DC000984207D01B4EB04204D01B4EB04201D0F7
:102DD000A84203D1466C46F4004646642068884207
:102DE00011D0B0F1804F0ED0144988420BD0144955
:102DF000884208D01349884205D0904203D09842B7
:102E000001D0A84207D181680F4A1140062906D097
:102E1000B1F5803F03D0016841F00101016000205D
:102E200070BD0000002C0140003401400040014012
:102E300000500140004401400048014000040040AF
:102E400000080040000C004007000100FEE700EB16
:102E50008100006E00F0F84070478068C0F3C00049
:102E600070478068C0F3C00070478068C0F380007E
:102E700070478068C0F380007047042303EAD15391
:102E800010B518444369C1F3045107248C40A3438F
:102E90008A401343436110BD00EB8100016E21F0B5
:102EA000004111430166704730B593B000240F9480
:102EB00010943C2168461194FDF730FA2A484FF0EF
:102EC000A041012501604FF44031C0E90114C46004
:102ED00008210461C0E9055104774477056280F850
:102EE000244080F838404902C16380F84040FDF733
:102EF000ABFF08B1FDF712FB0FA91B480F94FDF7BC
:102F0000F3FE08B1FDF70AFB184800900920019074
:102F1000032002907F2003900420CDE904040220C6
:102F2000089084200A908DF8245080208DF8254048
:102F30000B908DF826408DF8304069460A48FDF721
:102F400093FB08B1FDF7EAFA0948009040F20F1030
:102F5000019069460448FDF787FB002801D0FDF782
:102F6000DDFA13B030BD0000D400002002003004B0
:102F7000002090B630B58FB03C216846FDF7CEF901
:102F800027482649002401604FF44031C0E901146C
:102F9000C460012508210461C0E905510477447724
:102FA000056280F8244080F838404902C16380F807
:102FB0004040FDF749FF08B1FDF7B0FA194800900D
:102FC00009200190032002907F2003900420CDE986
:102FD00004040220089084200A908DF82450802058
:102FE0008DF825400B908DF826408DF830406946CD
:102FF0000B48FDF739FB08B1FDF790FA0A4800903D
:1030000040F20F10019069460548FDF72DFB00289E
:1030100001D0FDF783FA0FB030BD00000001005071
:103020004001002000005247000029C330B593B092
:1030300000240F9410943C2168461194FDF76EF91A
:103040002A482949012501604FF44031C0E90114A3
:10305000C46008210461C0E9055104774477056222
:1030600080F8244080F838404902C16380F840402D
:10307000FDF7EAFE08B1FDF751FA0FA91B480F94BE
:10308000FDF732FE08B1FDF749FA19480090092012
:103090000190032002907F2003900420CDE90404D6
:1030A0000220089084200A908DF8245080208DF80A
:1030B00025400B908DF826408DF8304069460B482E
:1030C000FDF7D2FA08B1FDF729FA0A48009040F25C
:1030D0000F10019069460548FDF7C6FA002801D097
:1030E000FDF71CFA13B030BD00040050AC01002005
:1030F00000106032002098B630B58FB03C21684691
:10310000FDF70CF927482649002401604FF44031AF
:10311000C0E90114C460012508210461C0E905511A
:1031200004774477056280F8244080F838404902EB
:10313000C16380F84040FDF787FE08B1FDF7EEF966
:103140001948009009200190032002907F200390ED
:103150000420CDE904040220089084200A908DF810
:10316000245080208DF825400B908DF826408DF856
:10317000304069460B48FDF777FA08B1FDF7CEF904
:103180000A48009040F20F10019069460548FDF78B
:103190006BFA002801D0FDF7C1F90FB030BD000077
:1031A0000005005018020020000084CB00005AC720
:1031B00070B5144812494FF4807202C00021E0E853
:1031C00002120C2202C0012300F8011B072400F8A0
:1031D000011B062500F8121BA0F1100686E83C0032
:1031E000C0E903514161816180E81C000548FEF798
:1031F000F7F8002803D0BDE87040FDF78FB970BD27
:1032000000640040840200202DE9F04387B01421BF
:103210006846FDF783F83B48C16C41F00401C16486
:10322000C16C01F004010591C16C41F02001C16441
:10323000C16C01F020010591C16C41F04001C164F5
:10324000C16C01F040010591C16C41F00101C16404
:10325000C16C01F001010591C16C41F00201C16432
:10326000C06C4FF4007700F002004FF090480590DA
:10327000002239464046FEF737FBDFF88C900022EB
:1032800030214846FEF730FB4FF460400324002510
:103290008DE8310069461D48FEF702FA02260096C5
:1032A00069461B48CDE90145FEF7FAF970028DE841
:1032B000310069461748FEF7F3F948F2E4408DE81B
:1032C000310069464046FEF7EBF94AF6CE708DE8CC
:1032D000310069464846FEF7E3F90125CDE902646D
:1032E000CDE9007569464046FEF7DAF930208DE8F1
:1032F0006100694648460396FEF7D2F907B0BDE87B
:10330000F08300000010024000040048000800485C
:1033100000140048001800480C4810B50A49016024
:1033200080214160602181600421016101210175DA
:1033300000218161C162FEF797FB002803D0BDE840
:103340001040FDF7EBB810BD00030140E80200207B
:103350000C4810B50A4901608021416060218160FC
:10336000042101610121017500218161C162FEF723
:103370007BFB002803D0BDE81040FDF7CFB810BD9F
:1033800004030140240300200C4810B50A490160E1
:1033900000216022C0E901120822026101220275A7
:1033A0008161C162FEF760FB002803D0BDE81040D8
:1033B000FDF7B4B810BD0000080301406003002011
:1033C0000B4810B50949016000216022C0E90112D3
:1033D0000122016102758161C162FEF745FB00288F
:1033E00003D0BDE81040FDF799B810BD14030140AB
:1033F0009C03002030B597B00024149415941C2130
:103400000DA81694FCF78AFF34216846FCF786FF66
:10341000324D3148C5E9000440F28F60C5E90240F1
:103420002C616C612846AC61FFF736FC08B1FDF7F2
:1034300075F81494159414A928481694FFF7A8F960
:1034400008B1FDF76BF860200D904FF45270CDE994
:103450000E0410941194129400220DA91F48139485
:10346000FFF788FB08B1FDF759F82868816921F05A
:10347000080181614FF470700E9008220DA9174861
:10348000FFF778FB08B1FDF749F84FF4D2700E90C2
:103490000C220DA91148FFF76DFB08B1FDF73EF8AE
:1034A00000944FF40050CDE9044003940003CDE9AB
:1034B000084001940294069407940A940B94694678
:1034C00006480C94FFF710F908B1FDF727F80348F8
:1034D000FFF726FB17B030BD002C0140D8030020B9
:1034E00010B588B000241748009401940294039406
:1034F000049405944FF080410694016040F28F617E
:10350000C0E901140921C0E9031480218161FFF79A
:103510009BF908B1FDF702F84FF48050009069461E
:103520000848FFF779FA08B1FCF7F8FF049404A9FA
:1035300004480694FFF72CF9002801D0FCF7EEFFB1
:1035400008B010BD240400203EB500240F480094AC
:1035500001940D4902940160A721C0E9011463217F
:10356000C16080218161FFF76FF908B1FCF7D6FFD8
:103570000094694605480294FFF70AF9002801D033
:10358000FCF7CCFF3EBD000000140040700400209A
:10359000FEE7FEF79BFEFEE770477047704710B5E9
:1035A00094B038216846FCF7B9FE14210EA8FCF748
:1035B000B5FE0020FEF742FB012000904FF4A02052
:1035C000019002200324CDE907041C21CDE9090163
:1035D0000B900C900D906846FEF784FE08B172B611
:1035E000FEE70F20CDE90E040020109011901290FC
:1035F00004210EA8FEF70AFD08B172B6FEE7FEF739
:10360000F3FD14B010BD00000248016841F47001E0
:103610000160704788ED00E0F0B5434F444B454AE8
:10362000B878424E90F0010C87F802C042494348F6
:103630001C681368356809680068414A27D0D4F8C7
:1036400080C0404C2768A7EBE707A7F500676744F1
:1036500027603D4CD3F880302768A7EBE707FB1ABB
:1036600003F500632360394BD1F880101C68A4EB8C
:10367000E404611A01F500611960D0F88000A5EB3F
:10368000E50108443060116831480861F0BD314EF1
:10369000D4F88440D6F800C0ACEBEC0CA4442E4C1B
:1036A000C6F800C0D3F884302668A6EBE60633449B
:1036B00023602A4CD1F884102668A6EBE606314434
:1036C00021602749D0F884000C68A4EBE40420446E
:1036D00008604FF0904040698005D4D538781028B4
:1036E000D1D044F268208445CDDB43F2B0608542FE
:1036F000C9DC1C4850210068C01A90FBF1F01A493F
:103700000B6818440860502801DA502004E043F2A6
:103710006013984200DD184608601368C1105963B1
:10372000116800110864AEE7480000203000002056
:10373000D400002040010020AC010020180200202D
:10374000D80300201C0000201400002018000020D6
:10375000E1FFFCFF200000202C00002024000020BE
:10376000280000200C000020100000202DE9F0416E
:1037700040215248FDF79EFD514E524D524C534F41
:10378000F0B3FEF7B7F8286605F128032A46402172
:103790004A48FDF79BFD20712868B0F5047F37D1BA
:1037A000288D40BA00EE100AB8EE400ADFED480A54
:1037B00020EE200A10EE100A00F08AFE9FED451B55
:1037C00053EC112B00F086FD00F03EFD42F210712B
:1037D000A060884202DD4149884202DB47F2305056
:1037E000A060306844F274018842A0680CDD00F0EB
:1037F0005AFD9FED3B1B53EC112B00F06BFD00E0DD
:1038000006E000F021FDA060386095F82A006071A4
:10381000FEF770F8E86534482A4A90ED000A34480B
:103820005432F8EEC00A9FED310AA2F1240120EED5
:10383000801AD0ED000AF8EEE00A61EE200A9FED52
:103840002D1A60EE810AB2EE041A60EE810A9FED35
:103850002B1AFCEEE00A10EE900A25F8540FD4ED76
:10386000030AFCEEE00A10EE900AA880D6ED000AEA
:10387000F8EEE00A20EE800ADFED1F0A20EE200AB3
:10388000BCEEC00A10EE100A688097ED000AB8EE90
:10389000C00A20EE010A20EE200ABCEEC00A10EE9B
:1038A000100AE8800548FDF7B1FC1549E0706FF09B
:1038B000010009680861BDE8F08100008402002071
:1038C0002400002070000020480000200800002094
:1038D0000AD7233C5C8FC2F528368C40F0490200A1
:1038E000C3F5285C8FC2ED3F280000203F30913A9D
:1038F0001800002050FD833A0000C8420AD7A33ABE
:103900002404002010B5FDF7FBFF03496FF0010010
:103910000968086110BD0000CC0400202DE9F05FAB
:103920009D489E49DFF87C9200680968DFF878B20C
:1039300000FB01F24FF47A7192FBF1F3984A9C4C30
:103940004FF010081360D9F80020DBF800305A431C
:1039500092FBF1F295490A60617881B144F26821E5
:10396000884205DB9348016843F2B060814206DD7E
:10397000002210219048FDF7B7FF84F800802278DC
:103980008E4D002641F658374FF400714FF09040AD
:103990004FF0080A42F2E45C42F24863042A3BD04A
:1039A00005DC6AB1012A45D0022A29D129E0082A7A
:1039B0004CD0814B2833102A65D0202A20D181E0B9
:1039C0000122FDF791FF7E49D9F8000028600968BF
:1039D0004FF06407401A00D54042B0F57A7F73DAA1
:1039E0006D48016844F2682081426DDB71480168CE
:1039F00043F2B060814267DC84F800A0012060706F
:103A000062E0DBF800102A68ACEB010002EB60100A
:103A1000286099420BDB57E0DBF800002A6800EBD6
:103A20000C01A2EB61114042296098424CDA84F803
:103A300000A049E0D9F800004FF4FA57B84243DD3E
:103A4000012220215C48FDF74FFFF0E75D4801228D
:103A5000016853480068A1EB000A10215648FDF7A1
:103A600043FFD9F800002A68B0F57A5F02DA02EB6A
:103A70002A2101E002EB6A212960B84224DA0121FF
:103A80002170286020E0C3F80080D9F800202A6067
:103A9000414A136844F2682293420EDB454A136898
:103AA00043F2B062934208DC2269521C2261B2F5F3
:103AB0007A7F03D92661267000E026610022FDF797
:103AC00013FF01E0C3F800803448006841423E48DB
:103AD000C82907DD0168491C0160B1F57A7F02DD64
:103AE00084F800800660314909684A422C49096817
:103AF0008A420BDDB1F5FA5F08DAC26841F2883319
:103B0000521CC2609A4202DD84F80080C660DBF875
:103B1000003042F21072934202DC5B42934207DDB6
:103B200083685B1C8360B3F5FA7F02DD84F8008054
:103B300086602868B84204DB45F2F057B84200DCE2
:103B4000074622482F600368194401606369B3FB8C
:103B5000F2F502FB15325B1C6361B2B1627912B1FE
:103B60001B4A6671168000EE101ADFED1A0A9FEDEF
:103B70001A1AB8EEC00A60EE200A94ED030A00EEAD
:103B8000810A84ED030A0660666114496FF0010042
:103B900009680861BDE8F09F2000002014000020A3
:103BA00000000020240000201C0000200400002051
:103BB0004800002030000020000400480C000020D5
:103BC0002C00002008000020BC040020340000204D
:103BD0003800002095BFD633603A923F7004002031
:103BE0002DE9F04F02682E4B2E4E2F4FDFF8BCC050
:103BF0002F4C304D4FF0804B98420BD0584509D098
:103C0000B04207D0B84205D0604503D0A04201D0F1
:103C1000A84204D122F070084A6842EA0802DFF89C
:103C20009880DFF89890DFF898A0984211D0584516
:103C30000FD0B0420DD0B8420BD0604509D0A042A1
:103C400007D0404505D0484503D0504501D0A84293
:103C500003D122F44076CA6832434E6922F08002D2
:103C6000324302608A68C2620A688262984209D05E
:103C7000A04207D0404505D0484503D0504501D06B
:103C8000A84201D109690163012141610169C907A4
:103C900003D0016921F001010161BDE8F08F00004E
:103CA000002C01400004004000080040000C0040CF
:103CB00000340140005001400040014000440140F8
:103CC0000048014010B501F01F030121046A99402A
:103CD0008C430462016A9A401143016210BD10B521
:103CE000846842EA032224F47F440A432243826028
:103CF00010BD00008268034B1A400A4342F00701DE
:103D0000816070478FFFCFFF2DE9F047056A026A97
:103D100022F001020262436882691F4C25F002050D
:103D200022400C6822F0030214438A681C4E2A4386
:103D30001A4D1C4FDFF870C0DFF87090DFF870A0EC
:103D4000A84209D0B04207D0B84205D0604503D0A0
:103D5000484501D0504506D122F00808CA6842EA19
:103D6000080222F00402A84209D0B04207D0B842AB
:103D700005D0604503D0484501D0504505D14D6977
:103D800023F440731D438B692B434360846149686E
:103D900041630262BDE8F0878FFFFEFF002C014007
:103DA000003401400040014000440140004801400F
:103DB00000500140F0B5056A026A22F0100202626A
:103DC000426883691C4C1E4E23400C6823F44073E8
:103DD00043EA042425F020038D681A4F43EA0513B3
:103DE000164DA84203D0B04201D0B84207D1D1F855
:103DF0000CC023F0800343EA0C1323F04003A842D5
:103E00000CD0B0420AD0104DA84207D00F4DA842A6
:103E100004D00F4DA84201D0B84207D14D6922F419
:103E2000406242EA85028D6942EA8502426084610D
:103E3000496881630362F0BDFF8FFFFE002C0140E3
:103E40000034014000500140004001400044014066
:103E500000480140F0B5056A026A22F480720262ED
:103E60004368C2691C4C1E4E22400C6822F00302BB
:103E7000144325F400728D681A4F42EA0522174D4B
:103E8000A84203D0B04201D0B84207D1D1F80CC04B
:103E900022F4006242EA0C2222F48062A8420CD092
:103EA000B0420AD0104DA84207D0104DA84204D00D
:103EB0000F4DA84201D0B84207D14D6923F44053B9
:103EC00043EA05138D6943EA05134360C4614968F9
:103ED000C1630262F0BD00008FFFFEFF002C0140B5
:103EE00000340140005001400040014000440140C6
:103EF00000480140F0B5056A026A22F4805202626D
:103F00004268C3691C4C1E4E23400C6823F4407366
:103F100043EA042425F400538D681A4F43EA05331D
:103F2000164DA84203D0B04201D0B84207D1D1F813
:103F30000CC023F4004343EA0C3323F48043A8422B
:103F40000CD0B0420AD0104DA84207D00F4DA84265
:103F500004D00F4DA84201D0B84207D14D6922F4D8
:103F6000404242EA85128D6942EA85124260C4618C
:103F7000496801640362F0BDFF8FFFFE002C014021
:103F80000034014000500140004001400044014025
:103F90000048014030B5056A026A22F480320262AC
:103FA0004268036D124C23400C681C4325F4003317
:103FB0000D8943EA05430F4DA8420ED00E4DA8428D
:103FC0000BD00E4DA84208D00D4DA84205D00D4D86
:103FD000A84202D00C4DA84204D14D6922F480328F
:103FE00042EA05224260046549688164036230BD8B
:103FF0008FFFFEFF002C01400034014000400140D3
:1040000000440140004801400050014030B5046ABE
:10401000026A22F4801202624268036D134D24F496
:1040200000142B400D6843EA05230D8944EA05542A
:104030000F4DA8420ED00F4DA8420BD00E4DA842F6
:1040400008D00E4DA84205D00D4DA84202D00D4D0E
:10405000A84204D14D6922F4802242EA85224260BE
:1040600003654968C164046230BD0000FF8FFFFE34
:10407000002C014000340140004001400044014058
:10408000004801400050014010B5036A046A24F062
:1040900001040462846924F0F00444EA021423F069
:1040A0000A020A438461026210BD10B5036A046A01
:1040B00024F010040462846923F0A00324F4704403
:1040C00044EA023243EA01118261016210BDFEE757
:1040D0000907090E002804DB00F1E02080F8001435
:1040E000704700F00F0000F1E02080F8141D7047C9
:1040F000FDF70EFCFFF753FAFFF786F8FEF7D4FE44
:10410000FEF738FFFEF792FFFEF7F6FFFFF704F920
:10411000FFF71EF9FFF738F9FFF752F9FFF76AF9D1
:10412000FFF746F8FFF710FAFFF7DAF9394E0022E9
:1041300010213046FDF7D8FB4FF400744FF0904546
:10414000002221462846FDF7CFFB012220213046E0
:10415000FDF7CAFB7F213048FCF73CFA7F212F484E
:10416000FCF738FA7F212E48FCF734FA7F212D48DE
:10417000FCF730FA2C48FDF74BFD2C48FDF748FDC5
:104180002B48FDF745FD2B48FDF742FD2248FCF783
:104190001BFD2248FCF718FD2148FCF715FD2148BE
:1041A000FCF712FD00212448FEF7C6FD0C21224831
:1041B000FEF7C2FD08212048FEF7BEFD1E4802683A
:1041C000D06840F00800D0604FF47A763046FDF7B2
:1041D0000BF8012221462846FDF786FBFCF7D8F9AB
:1041E0001649002088803046FCF7FEFF1448FEF791
:1041F0008DFB13480068C16841F00101C16011489E
:10420000FEF784FB0F480068C16841F00101C160FE
:10421000FEE7000000040048D40000204001002018
:10422000AC01002018020020E80200202403002036
:10423000600300209C030020D803002038000020E9
:1042400070040020240400204FEA41034FEA535336
:10425000A3F58063D3F11E03C8BFD3F1210C0CDD9D
:104260004FF0004242EAC12242EA505232FA03FCC5
:104270008CEAE17CACEBE1707047102BC4BF0020EE
:10428000704703F5787CBCF1FF3F04D06FF000422B
:1042900082EA2100704770B500F0C6F84992248088
:1042A00000207047F2E710F0004248BF4042B0FAE9
:1042B00080F310FA03F10AD0C3F11D0303F5806304
:1042C0004FEA415002EB035202EBD12170474FF00D
:1042D00000007047DFF848C170B51CEA111E1EBF10
:1042E0001CEA13159EEA0C0F95EA0C0F00F06F8084
:1042F00081EA030423EA4C134EEAD47E21EA4C11EE
:1043000041F4801143F48013AE44A1FB024CA0FBA6
:104310000365AEF17F7E361955EB0C05A1FB034C0E
:104320004CF10003A0FB021C16EB0C06654153F197
:104330000003094218BF46F0010613F4007F0BD1B9
:104340004FEA03314FEA0530340341EA155140EAA0
:1043500016506FF003020AE04FEAC3214FEAC5206E
:10436000F40241EA555140EA56506FF0020202EB66
:104370002E4201EB025585EACE710AD05FEA440C69
:1043800018BF24F0004450F1000041F1000120EA80
:10439000D47040F2FE7C624500D270BDA84214BFCA
:1043A0004FF080444FF04044002E08BF0024BEF17F
:1043B000806FA8BFA1F1C041BDE8704080F282804B
:1043C0004FF0000001F1C04101F0004170479EEA4A
:1043D0000C0F0CEA131518BF95EA0C0F06D04FF01E
:1043E000000081EA030E0EF0004170BD00F01CF8E1
:1043F0008900013E00F007B800F009B84FEA430C0D
:104400005FEA5C5C08D081EA030100F05BB84FEA28
:10441000410C5FEA5C5CF6D14FF000000149704747
:104420000000FF070000F87F0EF1020E2EF0030ED1
:104430005EF8046B364205D4012A43EB030515F5FB
:10444000001F12D8012841EB010C1CF5001F0CD8ED
:104450000ED14FEAD17C15F5001F0CEB4C0C0CF182
:10446000020C08BF4CEBD37C04E04FF0080C01E0D9
:104470004FEAD37C0CEB4C0526FA05F606F007064E
:10448000B6F1040C06D20EEB860CBDE870404CF081
:10449000010C6047DFE80CF0090B02024FF000410D
:1044A0004FF00000A1F5002170BD1946104601280B
:1044B00051EB010418BFD4F5001484BF002001F0B3
:1044C000004170BD0808A0F500114FEA31017047A6
:1044D00043004FEAD30C4FEA3C0C43401FBF400758
:1044E0000CF1605113F0FE4F70471CF0006F03D1C8
:1044F00000200CF0004170470CF0004343EA50707C
:1045000010B540EACC0000F00EF800BF00000092A9
:104510004FEA0001FFF7D6BF4FF000414FF0000017
:10452000A1F5002170470EF1020E2EF0030E5EF889
:10453000044B244204D44FEA4102B2F17F4F11D818
:104540004FEA4003B3F17F4F0CD80ED14FEAD07C35
:10455000B2F17F4F0CEB4C0C0CF1020C08BF4CEB92
:10456000D17C04E04FF0080C01E04FEAD17C0CEB69
:104570004C0324FA03F404F00704B4F1040C06D24B
:104580000EEB840CBDE810404CF0010C6047DFE8F6
:104590000CF0070802024FF00040A0F5800010BDAB
:1045A0000846420018BFD2F1807288BF00F0004078
:1045B00010BD4FF04070E1EE100A7047000000009F
:1045C00000000000000000000100000000000000EA
:1045D000FF0700000001020304050607080C101481
:1045E0001820304000000000000000000102030419
:1045F0000607080900000000010203041C46000829
:104600000000002070000000140200088C46000822
:1046100070000020080B00003002000800000000BD
:104620000000000050C30000983A0000401A00004B
:10463000000000000000000000000000000000007A
:10464000000000000000000000000000000000006A
:10465000000000000000000000000000000000005A
:10466000000000000000000000000000000000004A
:10467000000000000000000000000000100000002A
:0C46800001000000000000000024F40015
:04000005080001D915
:00000001FF
